:030000000201BD3D
:0C01BD00787FE4F6D8FD75811D0200F982
:0A01C900C0F9A4B0999283F8809861
:020182008F0FDD
:1001840078107C007D007BFF7A0179C97E007F0AAC
:100194001200D3E50FC3940A50087410250FF8E633
:0401A400FF227F00B7
:0101A8002234
:1001A900E4FFFE0FBF00010EC3EF94F4EE648094E8
:0301B9008140F092
:0101BC002220
:1000F900E4F508F50CF50BF50AF509F50D750E0192
:1001090075A0FF751A04751B03751C02751D01E5A1
:100119000E6401450D700CC2B5C2B6C2B7D2B4AFF8
:100129001A8032E50E6402450D700CC2B4C2B6C223
:10013900B7D2B5AF1B801EE50E6403450D700CC226
:10014900B5C2B4C2B7D2B6AF1C800AC2B5C2B6C274
:10015900B4D2B7AF1D1201828FA0C3E50E9404E596
:100169000D648094804005E4F50DF50E050EE50E4D
:090179007002050D1201A9809627
:10000300E709F608DFFA8046E709F208DFFA803EDF
:1000130088828C83E709F0A3DFFA8032E309F608CC
:10002300DFFA8078E309F208DFFA807088828C8334
:10003300E309F0A3DFFA806489828A83E0A3F608E8
:10004300DFFA805889828A83E0A3F208DFFA804CC2
:1000530080D280FA80C680D4806980F28033801099
:1000630080A680EA809A80A880DA80E280CA803302
:1000730089828A83ECFAE493A3C8C582C8CCC5837A
:10008300CCF0A3C8C582C8CCC583CCDFE9DEE7804A
:100093000D89828A83E493A3F608DFF9ECFAA9F0C9
:1000A300EDFB2289828A83ECFAE0A3C8C582C8CC1F
:1000B300C583CCF0A3C8C582C8CCC583CCDFEADE38
:1000C300E880DB89828A83E493A3F208DFF980CC9A
:1000D30088F0EF60010E4E60C388F0ED2402B40493
:1000E3000050B9F582EB2402B4040050AF2323453A
:0600F3008223900053730C
:00000001FF
