:0300000002023ABF
:0C023A00787FE4F6D8FD75811D02010AF2
:0A024600C0F9A4B0999283F88098E3
:020200008F0F5E
:1002020078107C007D007BFF7A0279467E007F0AAF
:100212001200D3E50FC3940A50087410250FF8E6B4
:04022200FF227F0038
:0102260022B5
:10022700758901758C4B758AFDD28C308DFDC28C1A
:03023700C28D2253
:10010A00E4F508F50CF50BF50AF509F50D750E0180
:10011A0075A0FFF51DF51CF51BF51AE50E640145E2
:10012A000D7011C2B5C2B6C2B7AF1A1202008FA0C3
:10013A00D2B48041E50E6402450D7011C2B4C2B654
:10014A00C2B7AF1B1202008FA0D2B58028E50E6499
:10015A0003450D7011C2B5C2B4C2B7AF1C1202007A
:10016A008FA0D2B6800FC2B5C2B6C2B4AF1D1202FA
:10017A00008FA0D2B7C3E50E9404E50D6480948085
:10018A004005E4F50DF50E050EE50E7002050D129B
:10019A000227E47F14FEFDFCAB0CAA0BA90AA809EE
:1001AA00C31200F97038051AF50CF50BF50AF509B2
:1001BA00E51AC3940A4005E4F51A051BE51BC39426
:1001CA00064005E4F51B051CE51CC3940A4005E43A
:1001DA00F51C051DE51DC394064003E4F51DE50C59
:1001EA002401F50CE4350BF50BE4350AF50AE43580
:0601FA0009F509020125D0
:10000300E709F608DFFA8046E709F208DFFA803EDF
:1000130088828C83E709F0A3DFFA8032E309F608CC
:10002300DFFA8078E309F208DFFA807088828C8334
:10003300E309F0A3DFFA806489828A83E0A3F608E8
:10004300DFFA805889828A83E0A3F208DFFA804CC2
:1000530080D280FA80C680D4806980F28033801099
:1000630080A680EA809A80A880DA80E280CA803302
:1000730089828A83ECFAE493A3C8C582C8CCC5837A
:10008300CCF0A3C8C582C8CCC583CCDFE9DEE7804A
:100093000D89828A83E493A3F608DFF9ECFAA9F0C9
:1000A300EDFB2289828A83ECFAE0A3C8C582C8CC1F
:1000B300C583CCF0A3C8C582C8CCC583CCDFEADE38
:1000C300E880DB89828A83E493A3F208DFF980CC9A
:1000D30088F0EF60010E4E60C388F0ED2402B40493
:1000E3000050B9F582EB2402B4040050AF2323453A
:0600F3008223900053730C
:1000F900EB9FF5F0EA9E42F0E99D42F0E89C45F05D
:0101090022D3
:00000001FF
