:0300000002007883
:0C007800787FE4F6D8FD758109020003D2
:0B004C00F509E508C454F04509F590E3
:10005700E4FFFE758901758CEB758AFDD28C308DB6
:10006700FDC28CC28D0FBF00010EEF64144E70E30A
:010077002266
:10000300E4FDFC75080875090112004EE4FCFDE5EA
:1000130008C313F508E50925E012004C0DBD0001E6
:100023000CED64034C70E8E4FCFDC3ED9403EC6455
:1000330080948050D7E50825E0F508E509C313123D
:09004300004C0DBD00010C80E130
:00000001FF
