:0300000002016793
:0C016700787FE4F6D8FD758113020120BA
:0A017300C0F9A4B0999283F88098B7
:0200F9008F086E
:1000FB0078097C007D007BFF7A0179737E007F0A93
:10010B001200D3E508C3940A500874092508F8E6D1
:04011B00FF227F0040
:01011F0022BD
:10014600E4FFFE758901758C4B758AFDD28C308D66
:10015600FDC28CC28D0FBF00010EEF64324E70E3FC
:010166002276
:10012000E4F513D2B7C2B6C2B5C2B475A0FFAF131F
:100130001200F98FA01201460513E513D39409406C
:06014000EDE4F51380E878
:10000300E709F608DFFA8046E709F208DFFA803EDF
:1000130088828C83E709F0A3DFFA8032E309F608CC
:10002300DFFA8078E309F208DFFA807088828C8334
:10003300E309F0A3DFFA806489828A83E0A3F608E8
:10004300DFFA805889828A83E0A3F208DFFA804CC2
:1000530080D280FA80C680D4806980F28033801099
:1000630080A680EA809A80A880DA80E280CA803302
:1000730089828A83ECFAE493A3C8C582C8CCC5837A
:10008300CCF0A3C8C582C8CCC583CCDFE9DEE7804A
:100093000D89828A83E493A3F608DFF9ECFAA9F0C9
:1000A300EDFB2289828A83ECFAE0A3C8C582C8CC1F
:1000B300C583CCF0A3C8C582C8CCC583CCDFEADE38
:1000C300E880DB89828A83E493A3F208DFF980CC9A
:1000D30088F0EF60010E4E60C388F0ED2402B40493
:1000E3000050B9F582EB2402B4040050AF2323453A
:0600F3008223900053730C
:00000001FF
