:1001400012019E1200E61201A98F087F017E0012A3
:090150000160AF0812017280ED9C
:0B019E00E4F5807590F0F5A0F5B022AC
:040124007F107E27A3
:10012800E4FDFCC3ED9FEE6480F8EC648098500712
:070138000DBD00010C80EC7D
:01013F00229D
:10017200D2B78FA0D2B67F967E00120128C2B602F5
:02018200012852
:070159001201287F307E0037
:10016000C2B78FA0D2B67F967E00120128C2B60217
:02017000012864
:1000E6007F987E3A1201597F947E111201597F2C16
:1000F6007E011201287F301E1201607F8A7E021265
:1001060001287F387E001201607F0C7E001201609C
:0E0116007F017E001201607F067E0002016004
:0E0184007F027E001201607FDC7E05020128F2
:10000300C290D291D292D2932094091201243094B7
:10001300FD7F37222095091201243095FD7F382278
:100023002096091201243096FD7F39222097091268
:1000330001243097FD7F2F22D290C291D292D29386
:100043002094091201243094FD7F34222095091253
:1000530001243095FD7F3522209609120124309624
:10006300FD7F36222097091201243097FD7F7822E5
:10007300D290D291C292D293209409120124309447
:10008300FD7F31222095091201243095FD7F322214
:100093002096091201243096FD7F332220970912FE
:1000A30001243097FD7F2D22D290D291D292C29318
:1000B3002094091201243094FD7F432220950912D4
:1000C30001243095FD7F30222096091201243096B9
:1000D300FD7F3D222097091201243097FD7F2B22BB
:0300E3007F6E220B
:0A01A9007F6EBF6E0512000380F8A0
:0101B3002229
:0300000002019268
:0C019200787FE4F6D8FD7581080201407A
:00000001FF
