:0300000002019D5D
:0C019D00787FE4F6D8FD7581120200F9AD
:0901A90031323334353637383970
:10014300E4FFFE758901758C4B758AFDD28C308D69
:10015300FDC28CC28D0FBF00010EEF64144E70E31D
:010163002279
:1000F900E4F508F509780A7C00FD7BFF7A0179A906
:10010900FE7F091200D37F381201811201647F0E2C
:100119001201811201647F011201811201647F8041
:10012900120181740A2509F8E6FF12018F120143B1
:0A0139000509E50970E8050880E4F7
:0E0181008F90C2A0C2A1D2A2120164C2A2221B
:0E018F008F90D2A0C2A1D2A2120164C2A222FD
:10016400E4FFFEE4FDFC0DBD00010CED64644C7085
:0C017400F50FBF00010EEF640A4E70E7AB
:01018000225C
:10000300E709F608DFFA8046E709F208DFFA803EDF
:1000130088828C83E709F0A3DFFA8032E309F608CC
:10002300DFFA8078E309F208DFFA807088828C8334
:10003300E309F0A3DFFA806489828A83E0A3F608E8
:10004300DFFA805889828A83E0A3F208DFFA804CC2
:1000530080D280FA80C680D4806980F28033801099
:1000630080A680EA809A80A880DA80E280CA803302
:1000730089828A83ECFAE493A3C8C582C8CCC5837A
:10008300CCF0A3C8C582C8CCC583CCDFE9DEE7804A
:100093000D89828A83E493A3F608DFF9ECFAA9F0C9
:1000A300EDFB2289828A83ECFAE0A3C8C582C8CC1F
:1000B300C583CCF0A3C8C582C8CCC583CCDFEADE38
:1000C300E880DB89828A83E493A3F208DFF980CC9A
:1000D30088F0EF60010E4E60C388F0ED2402B40493
:1000E3000050B9F582EB2402B4040050AF2323453A
:0600F3008223900053730C
:00000001FF
