:030000000202ED0C
:0C02ED00787FE4F6D8FD758122020184C0
:1002BC00C8C730313233343536373839536562611B
:0502CC007374696E006F
:10027E00E4FFFE758901758C4B758AFDD28C308D2D
:10028E00FDC28CC28D0FBF00010EEF64144E70E3E1
:01029E00223D
:10018400E4F508F509F50AF50BF50CF50D780E7C88
:1001940000FD7BFF7A0279BCFE7F021200D3781047
:1001A4007C007D007BFF7A0279BE7E007F0A12000C
:1001B400D3781A7C007D007BFF7A0279C87E007FA9
:1001C400091200D37F381202D112029F7F0C12024F
:1001D400D112029F7F011202D112029FC3E50D9436
:1001E40008E50C64809480501CE50D2484FF120201
:1001F400D1741A250DF8E6FF1202DF050DE50D7026
:10020400DB050C80D7E4F50CF50DC3E50D9402E590
:100214000C648094805037740E250DF8E6FF1202AA
:10022400D1AE0AAF0B7C007D0A1200F974102DF8D0
:10023400E6FF1202DFAE0AAF0B7C007D0A1200F962
:100244008E0A8F0B050DE50D70C0050C80BC1202E3
:100254007E0509E50970020508E4F50CF50DE509CC
:10026400641445087004FEFF8004AE08AF098E08CC
:0A0274008F0985080A85090B8090A8
:0E02D1008F90C2A0C2A1D2A212029FC2A2228E
:0E02DF008F90D2A0C2A1D2A212029FC2A22270
:10029F00E4FFFEE4FDFC0DBD00010CED64644C7049
:0C02AF00F50FBF00010EEF640A4E70E76F
:0102BB002220
:10000300E709F608DFFA8046E709F208DFFA803EDF
:1000130088828C83E709F0A3DFFA8032E309F608CC
:10002300DFFA8078E309F208DFFA807088828C8334
:10003300E309F0A3DFFA806489828A83E0A3F608E8
:10004300DFFA805889828A83E0A3F208DFFA804CC2
:1000530080D280FA80C680D4806980F28033801099
:1000630080A680EA809A80A880DA80E280CA803302
:1000730089828A83ECFAE493A3C8C582C8CCC5837A
:10008300CCF0A3C8C582C8CCC583CCDFE9DEE7804A
:100093000D89828A83E493A3F608DFF9ECFAA9F0C9
:1000A300EDFB2289828A83ECFAE0A3C8C582C8CC1F
:1000B300C583CCF0A3C8C582C8CCC583CCDFEADE38
:1000C300E880DB89828A83E493A3F208DFF980CC9A
:1000D30088F0EF60010E4E60C388F0ED2402B40493
:1000E3000050B9F582EB2402B4040050AF2323453A
:0600F3008223900053730C
:1000F900C2D5EC30E709B2D5E4C39DFDE49CFCEE22
:1001090030E715B2D5E4C39FFFE49EFE12012FC369
:10011900E49DFDE49CFC800312012F30D507C3E464
:060129009FFFE49EFE2290
:10012F00BC000BBE0029EF8DF084FFADF022E4CCB4
:10013F00F875F008EF2FFFEE33FEEC33FCEE9DEC7D
:10014F00984005FCEE9DFE0FD5F0E9E4CEFD22EDC3
:10015F00F8F5F0EE8420D21CFEADF075F008EF2F0D
:10016F00FFED33FD4007985006D5F0F222C398FDFE
:05017F000FD5F0EA229B
:00000001FF
